{
  "contractName": "Voting",
  "abi": [
    {
      "inputs": [
        {
          "internalType": "address",
          "name": "",
          "type": "address"
        }
      ],
      "name": "hasVoted",
      "outputs": [
        {
          "internalType": "bool",
          "name": "",
          "type": "bool"
        }
      ],
      "stateMutability": "view",
      "type": "function",
      "constant": true
    },
    {
      "inputs": [],
      "name": "votesA",
      "outputs": [
        {
          "internalType": "uint256",
          "name": "",
          "type": "uint256"
        }
      ],
      "stateMutability": "view",
      "type": "function",
      "constant": true
    },
    {
      "inputs": [],
      "name": "votesB",
      "outputs": [
        {
          "internalType": "uint256",
          "name": "",
          "type": "uint256"
        }
      ],
      "stateMutability": "view",
      "type": "function",
      "constant": true
    },
    {
      "inputs": [],
      "name": "voteA",
      "outputs": [],
      "stateMutability": "nonpayable",
      "type": "function"
    },
    {
      "inputs": [],
      "name": "voteB",
      "outputs": [],
      "stateMutability": "nonpayable",
      "type": "function"
    },
    {
      "inputs": [],
      "name": "getVotes",
      "outputs": [
        {
          "internalType": "uint256",
          "name": "",
          "type": "uint256"
        },
        {
          "internalType": "uint256",
          "name": "",
          "type": "uint256"
        }
      ],
      "stateMutability": "view",
      "type": "function",
      "constant": true
    }
  ],
  "bytecode": "0x608060405234801561001057600080fd5b5061058a806100206000396000f3fe608060405234801561001057600080fd5b50600436106100625760003560e01c806309eef43e146100675780630dc960151461009757806355416e06146100b65780635e39fff7146100c05780637ab7903f146100de578063fb32aedb146100fc575b600080fd5b610081600480360381019061007c91906103a0565b610106565b60405161008e91906103e8565b60405180910390f35b61009f610126565b6040516100ad92919061041c565b60405180910390f35b6100be610137565b005b6100c8610234565b6040516100d59190610445565b60405180910390f35b6100e661023a565b6040516100f39190610445565b60405180910390f35b610104610240565b005b60006020528060005260406000206000915054906101000a900460ff1681565b600080600154600254915091509091565b6000803373ffffffffffffffffffffffffffffffffffffffff1673ffffffffffffffffffffffffffffffffffffffff16815260200190815260200160002060009054906101000a900460ff16156101c3576040517f08c379a00000000000000000000000000000000000000000000000000000000081526004016101ba906104bd565b60405180910390fd5b60016000803373ffffffffffffffffffffffffffffffffffffffff1673ffffffffffffffffffffffffffffffffffffffff16815260200190815260200160002060006101000a81548160ff0219169083151502179055506001600081548092919061022d9061050c565b9190505550565b60025481565b60015481565b6000803373ffffffffffffffffffffffffffffffffffffffff1673ffffffffffffffffffffffffffffffffffffffff16815260200190815260200160002060009054906101000a900460ff16156102cc576040517f08c379a00000000000000000000000000000000000000000000000000000000081526004016102c3906104bd565b60405180910390fd5b60016000803373ffffffffffffffffffffffffffffffffffffffff1673ffffffffffffffffffffffffffffffffffffffff16815260200190815260200160002060006101000a81548160ff021916908315150217905550600260008154809291906103369061050c565b9190505550565b600080fd5b600073ffffffffffffffffffffffffffffffffffffffff82169050919050565b600061036d82610342565b9050919050565b61037d81610362565b811461038857600080fd5b50565b60008135905061039a81610374565b92915050565b6000602082840312156103b6576103b561033d565b5b60006103c48482850161038b565b91505092915050565b60008115159050919050565b6103e2816103cd565b82525050565b60006020820190506103fd60008301846103d9565b92915050565b6000819050919050565b61041681610403565b82525050565b6000604082019050610431600083018561040d565b61043e602083018461040d565b9392505050565b600060208201905061045a600083018461040d565b92915050565b600082825260208201905092915050565b7f596f75206861766520616c726561647920766f7465642e000000000000000000600082015250565b60006104a7601783610460565b91506104b282610471565b602082019050919050565b600060208201905081810360008301526104d68161049a565b9050919050565b7f4e487b7100000000000000000000000000000000000000000000000000000000600052601160045260246000fd5b600061051782610403565b91507fffffffffffffffffffffffffffffffffffffffffffffffffffffffffffffffff8203610549576105486104dd565b5b60018201905091905056fea2646970667358221220885521ba5c3f2889bd29d0f7c44e76e8f8c3f7cb216b71c5deeda6987bbca71864736f6c63430008130033",
  "immutableReferences": {},
  "source": "pragma solidity ^0.8.0;\n\ncontract Voting {\n    mapping(address => bool) public hasVoted;\n    uint256 public votesA;\n    uint256 public votesB;\n\n    function voteA() public {\n        require(!hasVoted[msg.sender], \"You have already voted.\");\n        hasVoted[msg.sender] = true;\n        votesA++;\n    }\n\n    function voteB() public {\n        require(!hasVoted[msg.sender], \"You have already voted.\");\n        hasVoted[msg.sender] = true;\n        votesB++;\n    }\n    function getVotes() public view returns (uint256, uint256) {\n        return (votesA, votesB);\n    }\n}\n",
  "sourcePath": "/Users/mojotracker/Desktop/Project_SunHacks/VotingSystem/contracts/Voting.sol",
  "compiler": {
    "name": "solc",
    "version": "0.8.19+commit.7dd6d404.Emscripten.clang"
  },
  "schemaVersion": "3.4.16",
  "updatedAt": "2024-09-29T13:03:20.720Z",
  "networkType": "ethereum",
  "devdoc": {
    "kind": "dev",
    "methods": {},
    "version": 1
  },
  "userdoc": {
    "kind": "user",
    "methods": {},
    "version": 1
  }
}